{
  "_format": "hh-sol-artifact-1",
  "contractName": "SphereSwapRouter",
  "sourceName": "contracts/SphereSwapRouter.sol",
  "abi": [
    {
      "inputs": [
        {
          "internalType": "address",
          "name": "token",
          "type": "address"
        }
      ],
      "name": "SafeERC20FailedOperation",
      "type": "error"
    },
    {
      "anonymous": false,
      "inputs": [
        {
          "indexed": true,
          "internalType": "address",
          "name": "tokenA",
          "type": "address"
        },
        {
          "indexed": true,
          "internalType": "address",
          "name": "tokenB",
          "type": "address"
        },
        {
          "indexed": false,
          "internalType": "uint256",
          "name": "amountA",
          "type": "uint256"
        },
        {
          "indexed": false,
          "internalType": "uint256",
          "name": "amountB",
          "type": "uint256"
        }
      ],
      "name": "LiquidityAdded",
      "type": "event"
    },
    {
      "anonymous": false,
      "inputs": [
        {
          "indexed": true,
          "internalType": "address",
          "name": "sender",
          "type": "address"
        },
        {
          "indexed": true,
          "internalType": "address",
          "name": "tokenIn",
          "type": "address"
        },
        {
          "indexed": true,
          "internalType": "address",
          "name": "tokenOut",
          "type": "address"
        },
        {
          "indexed": false,
          "internalType": "uint256",
          "name": "amountIn",
          "type": "uint256"
        },
        {
          "indexed": false,
          "internalType": "uint256",
          "name": "amountOut",
          "type": "uint256"
        }
      ],
      "name": "Swap",
      "type": "event"
    },
    {
      "inputs": [
        {
          "internalType": "address",
          "name": "tokenA",
          "type": "address"
        },
        {
          "internalType": "address",
          "name": "tokenB",
          "type": "address"
        },
        {
          "internalType": "uint256",
          "name": "amountA",
          "type": "uint256"
        },
        {
          "internalType": "uint256",
          "name": "amountB",
          "type": "uint256"
        }
      ],
      "name": "addLiquidity",
      "outputs": [],
      "stateMutability": "nonpayable",
      "type": "function"
    },
    {
      "inputs": [
        {
          "internalType": "address",
          "name": "tokenIn",
          "type": "address"
        },
        {
          "internalType": "address",
          "name": "tokenOut",
          "type": "address"
        },
        {
          "internalType": "uint256",
          "name": "amountIn",
          "type": "uint256"
        }
      ],
      "name": "getAmountOut",
      "outputs": [
        {
          "internalType": "uint256",
          "name": "amountOut",
          "type": "uint256"
        }
      ],
      "stateMutability": "view",
      "type": "function"
    },
    {
      "inputs": [
        {
          "internalType": "address",
          "name": "tokenA",
          "type": "address"
        },
        {
          "internalType": "address",
          "name": "tokenB",
          "type": "address"
        }
      ],
      "name": "getReserves",
      "outputs": [
        {
          "internalType": "uint256",
          "name": "reserveA",
          "type": "uint256"
        },
        {
          "internalType": "uint256",
          "name": "reserveB",
          "type": "uint256"
        }
      ],
      "stateMutability": "view",
      "type": "function"
    },
    {
      "inputs": [
        {
          "internalType": "bytes32",
          "name": "",
          "type": "bytes32"
        }
      ],
      "name": "pools",
      "outputs": [
        {
          "internalType": "uint256",
          "name": "reserveA",
          "type": "uint256"
        },
        {
          "internalType": "uint256",
          "name": "reserveB",
          "type": "uint256"
        },
        {
          "internalType": "address",
          "name": "tokenA",
          "type": "address"
        },
        {
          "internalType": "address",
          "name": "tokenB",
          "type": "address"
        },
        {
          "internalType": "bool",
          "name": "exists",
          "type": "bool"
        }
      ],
      "stateMutability": "view",
      "type": "function"
    },
    {
      "inputs": [
        {
          "internalType": "address",
          "name": "tokenIn",
          "type": "address"
        },
        {
          "internalType": "address",
          "name": "tokenOut",
          "type": "address"
        },
        {
          "internalType": "uint256",
          "name": "amountIn",
          "type": "uint256"
        },
        {
          "internalType": "uint256",
          "name": "minAmountOut",
          "type": "uint256"
        }
      ],
      "name": "swap",
      "outputs": [
        {
          "internalType": "uint256",
          "name": "amountOut",
          "type": "uint256"
        }
      ],
      "stateMutability": "nonpayable",
      "type": "function"
    }
  ],
  "bytecode": "0x608060405234801561001057600080fd5b50610aaa806100206000396000f3fe608060405234801561001057600080fd5b50600436106100575760003560e01c80634aa066521461005c578063b5217bb414610082578063cf6c62ea14610106578063d52bb6f41461011b578063fe02915614610143575b600080fd5b61006f61006a366004610935565b610156565b6040519081526020015b60405180910390f35b6100d0610090366004610971565b6000602081905290815260409020805460018201546002830154600390930154919290916001600160a01b0391821691811690600160a01b900460ff1685565b6040805195865260208601949094526001600160a01b03928316938501939093521660608301521515608082015260a001610079565b61011961011436600461098a565b6102a6565b005b61012e6101293660046109cc565b610528565b60408051928352602083019190915201610079565b61006f61015136600461098a565b6105e1565b6000806101638585610754565b6000818152602081905260409020600381015491925090600160a01b900460ff166101cb5760405162461bcd60e51b8152602060048201526013602482015272141bdbdb08191bd95cc81b9bdd08195e1a5cdd606a1b60448201526064015b60405180910390fd5b600281015460009081906001600160a01b038981169116146101f357600183015483546101fb565b825460018401545b9150915060008211801561020f5750600081115b6102545760405162461bcd60e51b8152602060048201526016602482015275496e73756666696369656e74206c697175696469747960501b60448201526064016101c2565b6000610262876103e5610a15565b905060006102708383610a15565b9050600082610281866103e8610a15565b61028b9190610a2c565b90506102978183610a3f565b9b9a5050505050505050505050565b826001600160a01b0316846001600160a01b0316036102fa5760405162461bcd60e51b815260206004820152601060248201526f4964656e746963616c20746f6b656e7360801b60448201526064016101c2565b60008211801561030a5750600081115b6103455760405162461bcd60e51b815260206004820152600c60248201526b5a65726f20616d6f756e747360a01b60448201526064016101c2565b60006103518585610754565b60008181526020819052604090209091506103776001600160a01b0387163330876107cb565b61038c6001600160a01b0386163330866107cb565b6003810154600160a01b900460ff1661044357600080866001600160a01b0316886001600160a01b0316106103c25786886103c5565b87875b91509150600080886001600160a01b03168a6001600160a01b0316106103ec5786886103ef565b87875b6002870180546001600160a01b0319166001600160a01b039788161790556003870180549288556001880191909155600160a01b949095166001600160a81b03199091161792909217909255506104ca9050565b60028101546001600160a01b0390811690871603610495578381600001600082825461046f9190610a2c565b925050819055508281600101600082825461048a9190610a2c565b909155506104ca9050565b828160000160008282546104a99190610a2c565b92505081905550838160010160008282546104c49190610a2c565b90915550505b846001600160a01b0316866001600160a01b03167f36f3b2e1a21c19137dd82ec243b0708a1d26b3d1fa1dc49c44c4c366a58781388686604051610518929190918252602082015260400190565b60405180910390a3505050505050565b60008060006105378585610754565b6000818152602081905260409020600381015491925090600160a01b900460ff1661059a5760405162461bcd60e51b8152602060048201526013602482015272141bdbdb08191bd95cc81b9bdd08195e1a5cdd606a1b60448201526064016101c2565b60028101546001600160a01b03908116908716036105c757806000015481600101549350935050506105da565b6001810154905490935091506105da9050565b9250929050565b60006105ee858585610156565b9050818110156106345760405162461bcd60e51b815260206004820152601160248201527014db1a5c1c1859d948195e18d959591959607a1b60448201526064016101c2565b60006106408686610754565b60008181526020819052604090209091506106666001600160a01b0388163330886107cb565b60028101546001600160a01b03908116908816036106b857848160000160008282546106929190610a2c565b92505081905550828160010160008282546106ad9190610a61565b909155506106eb9050565b848160010160008282546106cc9190610a2c565b90915550508054839082906000906106e5908490610a61565b90915550505b6106ff6001600160a01b0387163385610807565b60408051868152602081018590526001600160a01b0380891692908a169133917fcd3829a3813dc3cdd188fd3d01dcf3268c16be2fdd2dd21d0665418816e46062910160405180910390a45050949350505050565b6000806000836001600160a01b0316856001600160a01b03161061077957838561077c565b84845b6040516bffffffffffffffffffffffff19606084811b8216602084015283901b166034820152919350915060480160405160208183030381529060405280519060200120925050505b92915050565b6107d9848484846001610841565b61080157604051635274afe760e01b81526001600160a01b03851660048201526024016101c2565b50505050565b61081483838360016108b3565b61083c57604051635274afe760e01b81526001600160a01b03841660048201526024016101c2565b505050565b6040516323b872dd60e01b60008181526001600160a01b038781166004528616602452604485905291602083606481808c5af1925060016000511483166108a1578383151615610894573d6000823e3d81fd5b6000883b113d1516831692505b60405250600060605295945050505050565b60405163a9059cbb60e01b60008181526001600160a01b038616600452602485905291602083604481808b5af19250600160005114831661090d578383151615610900573d6000823e3d81fd5b6000873b113d1516831692505b60405250949350505050565b80356001600160a01b038116811461093057600080fd5b919050565b60008060006060848603121561094a57600080fd5b61095384610919565b925061096160208501610919565b9150604084013590509250925092565b60006020828403121561098357600080fd5b5035919050565b600080600080608085870312156109a057600080fd5b6109a985610919565b93506109b760208601610919565b93969395505050506040820135916060013590565b600080604083850312156109df57600080fd5b6109e883610919565b91506109f660208401610919565b90509250929050565b634e487b7160e01b600052601160045260246000fd5b80820281158282048414176107c5576107c56109ff565b808201808211156107c5576107c56109ff565b600082610a5c57634e487b7160e01b600052601260045260246000fd5b500490565b818103818111156107c5576107c56109ff56fea264697066735822122028cd1ae1ec2ee8eac39b0e0b14b68d11e0de45d933b45d391cae3384ed38f88564736f6c63430008140033",
  "linkReferences": {},
  "deployedLinkReferences": {}
}